:100000000C948B000C9465050C9465050C946505A7
:100010000C9465050C9465050C9465050C946505B8
:100020000C9465050C9465050C9465050C94050508
:100030000C9465050C9465050C9465050C94650598
:100040000C9465050C9465050C9465050C94650588
:100050000C9465050C9465050C9465050C94650578
:100060000C9465050C946505B502B702B702B7029A
:10007000B702B702B702B702B702B702B702B702B8
:10008000B702B702B702B702B702B702B702B702A8
:10009000AD02B702B702B702B702B702B702B702A2
:1000A000B702B702B702B702B702B702B702B70288
:1000B000B702B702AF02B702B702B702B702B70280
:1000C000B102B702B702B302B702B702B702B70272
:1000D000B902B702B702B702B702B702B702B70256
:1000E000B702B702B702B702B702B702B702B70248
:1000F000B702B702A902B702B702B702B702B70246
:10010000AB020100015E000AD8015E016380016359
:100110000164000B360011241FBECFEFD8E0DEBF14
:10012000CDBFE2E0F1E041E017C0B591A591359176
:100130002591059107FD0CC095918591EF01F92F4F
:10014000E82F05900D92A217B307D9F7FE0104C05E
:100150001D92A217B307E1F7E531F40731F70E94CA
:0A01600068040C943505F894FFCFF5
:10016A000000000000000000040E0E040400040059
:10017A001B1B120000000000000A1F0A0A1F0A00C7
:10018A00080E100C021C04001919020408131300AB
:10019A000814140815120D000C0C080000000000C9
:1001AA0004080808080804000804040404040800F1
:1001BA00000A0E1F0E0A00000004041F04040000B7
:1001CA0000000000000C0C080000001F00000000E6
:1001DA0000000000000C0C000001020408100000DE
:1001EA000E11131519110E00040C040404040E0058
:1001FA000E11010608101F000E11010E01110E004A
:10020A0002060A121F0202001F10101E01110E0020
:10021A000608101E11110E001F010204080808002A
:10022A000E11110E11110E000E11110F01020C0008
:10023A0000000C0C000C0C0000000C0C000C0C084C
:10024A00020408100804020000001F00001F00003A
:10025A0008040201020408000E1101060400040049
:10026A000E11171517100E000E11111F1111110082
:10027A001E11111E11111E000E11101010110E0068
:10028A001E11111111111E001F10101E10101F0037
:10029A001F10101E101010000E11101711110F0050
:1002AA001111111F111111000E04040404040E008F
:1002BA000101010111110E0011121418141211007A
:1002CA001010101010101F00111B15111111110020
:1002DA0011191513111111000E11111111110E001E
:1002EA001E11111E101010000E11111115120D0001
:1002FA001E11111E121111000E11100E01110E0005
:10030A001F040404040404001111111111110E0038
:10031A0011111111110A04001111151515150A00F0
:10032A0011110A040A1111001111110A040404001E
:10033A001E02040810101E000E08080808080E0005
:10034A0000100804020100000E02020202020E005E
:10035A00040A110000000000000000000000001F55
:10036A000C0C04000000000000000E010F110F0029
:10037A0010101E1111111E0000000E1110110E0096
:10038A0001010F1111110F0000000E111F100E00B4
:10039A000608081E0808080000000F11110F010EB8
:1003AA0010101C12121212000400040404040400A7
:1003BA00020006020202120C101012141814120083
:1003CA00040404040404060000001A15151111009F
:1003DA0000001C121212120000000E1111110E0060
:1003EA0000001E1111111E1000000F1111110F0132
:1003FA000000160908081C0000000E100E010E006D
:10040A0000081E08080A04000000121212160A0048
:10041A0000001111110A040000001111151F0A0031
:10042A00000012120C12120000001212120E04180E
:10043A0000001E020C101E00060808180808060014
:10044A0004040404040404000C02020302020C0063
:10045A0000000000000000000A000E010F110F004A
:10046A000A000E1111110E000A00121212160A00C9
:10047A000A0E111F111111000A0E111111110E008D
:10048A000A11111111110E000C12121C12121C1059
:08049A0006090906000000003C
:0C04A20008EF06183212451561134E16C3
:0604AE00416D70656C0059
:1004B4002F923F924F925F926F927F928F929F9270
:1004C400AF92BF92CF92DF92EF92FF920F931F935E
:1004D400CF93DF93CDB7DEB72F970FB6F894DEBF77
:1004E4000FBECDBF99878887862F4A87412FCD8637
:1004F400E885F9851081112309F4D6C0922F990F4C
:10050400990F990F920F3A853150390F3B87922FEB
:10051400990F920F990F9C871E82622F70E0AE2C68
:10052400BF2C09834A83EB827F876E877F2C01C0AF
:100534008F811B37E8F0412F50E0FA01E05BF109AD
:10054400ED34F10590F4EC5CFF4F0C945F0510E87A
:100554000FC011E80DC012E80BC013E809C014E87D
:1005640007C015E805C016E803C01FE301C01FE774
:100574007C85780F7F83472F41500D852B856A85B5
:100584000E946F0380EE810F90E0880F991F880FFF
:10059400991F880F991F9C01092E000C440B2659A2
:1005A4003E4F4F4FF901C49047FDC0800196092E7C
:1005B400000CAA0B9C014A2F26593E4F4F4F29018C
:1005C400642E1D821C820DC0F201C49067FCC080A1
:1005D4008C819D81089708F0C12C9FEF491A590A14
:1005E400690AEE85FF85EF2B09F446C088248394BD
:1005F400912CEC2CF12C2E853F85121613060CF051
:100604004EC001E010E08A2D9B2D0E9440050F5F33
:100614001F4F6E857F8560177107ACF740C0C70117
:100624000C2C02C0959587950A94E2F780FD03C0CF
:100634003B80272C02C039802A808E859F8518161E
:1006440019066CF401E010E0832D922D0E94400500
:100654000F5F1F4FEE85FF85E017F107ACF7F1E060
:10066400CF1AD108E0F67FEF871A970A8E859F8507
:100674008815990508F0BFCFEC81FD813196FD8383
:10068400EC83399709F0A0CF3E813F5F3E83E88534
:10069400F985E30FF11D108111114ACF05C068944B
:1006A400CC24C2F8D12CBBCF2F960FB6F894DEBF62
:1006B4000FBECDBFDF91CF911F910F91FF90EF90AF
:1006C400DF90CF90BF90AF909F908F907F906F906E
:0A06D4005F904F903F902F90089523
:1006DE000F93CF93DF93CDB7DEB72C970FB6F89469
:1006EE00DEBF0FBECDBF9CE0E2E5F1E0DE0111966C
:1006FE0001900D929A95E1F70230B1F1033009F4B1
:10070E004EC0013089F090E092619E838D8350E05F
:10071E00556158874F8370E073617A87698730E03F
:10072E0036613C872B8755C0E3E0F8E1FC83EB8311
:10073E00E3E8F0E0DF01A81BB109CD0192619E83D1
:10074E008D83E41BF109F561F887EF838FEA90E062
:10075E00AC01461B510953615A874987821B910987
:10076E0096619C878B8735C0E5E0F8E1FC83EB83CF
:10077E00E3E8F0E0DF01A61BB109BD0172617E83E3
:10078E006D83E21BF109F561F887EF8390E09361C9
:10079E009A87898750E056615C874B871AC0E6E0DE
:1007AE00F8E1FC83EB8370E072617E836D8330E051
:1007BE00356138872F832FEA30E0B901681B710944
:1007CE00CB0193619A878987241B310936613C8757
:1007DE002B87BE016F5F7F4F80E846E050E00E949E
:1007EE00B9042C960FB6F894DEBF0FBECDBFDF91C5
:0607FE00CF910F91089558
:100804000F931F93CF93DF93CDB7DEB7C255D109B2
:100814000FB6F894DEBF0FBECDBF82E5E0E0F1E095
:100824008E010F5F1F4FD80101900D928A95E1F759
:100834008CE291E00E94EB045B988BE490E00E94D0
:10084400EB042A9A8BE490E00E94EB045A9A8BE41E
:1008540090E00E94EB045B9A8BE490E00E94EB042E
:10086400B80180E842E050E00E94B9048BE490E0D3
:100874000E94EB04BE016B5F7F4F80E84AE050E0CA
:100884000E94B9048BE490E00E94EB04BE01675E11
:100894007F4F80E847E150E00E94B9048BE490E088
:1008A4000E94EB04BE01695B7F4F80E846E050E0A4
:1008B4000E94B904CE5ADF4F0FB6F894DEBF0FBEC4
:0C08C400CDBFDF91CF911F910F910895DF
:1008D000CF93DF9300D000D000D0CDB7DEB72EEAA3
:1008E00034E040E086E0F901DE011196742F0E94A9
:1008F00028052198299A5198599A8AB18C608AB909
:100900000E9417050E94590578940E94020400EC89
:100910001AE5809163010E945205809163010E9453
:10092000520501501109A9F746E050E062EA74E06F
:1009300080E00E94B90400E911E0809162010E9408
:100940005205809162010E94520501501109A9F7D8
:100950000F2EF3E0CF2EF02DEE24EA94FE2C0FE1C3
:1009600013E322E044E164E1CE0101960E945A02C1
:02097000FFCFB7
:100972006F927F928F92CF92DF92EF924115510543
:1009820011F13B01882E6B01E82E440F551F640EB6
:10099200751E811C57FD8A945A9AF6015E2D0E949B
:1009A2004A05872F0E945205F6018491E7FC808157
:1009B2000E9452055A9882E0C80ED11CE11CC6144E
:1009C200D704E80449F7EF90DF90CF908F907F90A3
:0409D2006F90089585
:1009D600F894209160013091610130935F0120937A
:1009E6005E017894F89420916001309161017894C9
:1009F60040915E0150915F01241B350B2817390782
:040A060088F30895D4
:100A0A008F938FB78F939F9380916001909161012B
:100A1A00019690936101809360019F918F918FBF9E
:040A2A008F911895FB
:100A2E00E1E8F0E0808189608083EFE6F0E080818C
:100A3E00826080838FE79EE3909389008093880085
:020A4E00089509
:100A5000992777FD05C005900D920197E1F708955C
:0A0A600001900D920197E1F708954F
:100A6A00EC010E946A050E946905CE010E946B058D
:060A7A00CE010E94670599
:100A8000CF93C82F892F0E9452058C2F0E945205A8
:040A9000CF91089565
:100A940057FD03C065917591089561917191089511
:0E0AA4002A988EBD0DB407FEFDCF2A9A089544
:0C0AB20084B18C6284B980E58CBD08958D
:0C0ABE00EE0FFF1F0590F491E02D09944D
:040ACA000C94000088
:040ACE000E94B300CF
:020AD200089585
:020AD400089583
:020AD600089581
:100AD800FDFDFDFD00EF04EE041BFEFEFEFE90EFA3
:100AE800044A3F7F04EE064390EF83090008AF0BEA
:100AF800000A00050006000700EF0CEE90EF8000EA
:100B0800B0EF024900EF017F81E102E276E283E182
:100B1800018090EF000008EF061800128315AF134C
:020B28000016B5
:0C0B2A0008EF0018001200150013001660
:010B3600FFBF
:00000001FF
