:100000000C943E000C949B010C949B010C949B015E
:100010000C949B010C949B010C949B010C949B01F0
:100020000C949B010C949B010C949B010C9460011B
:100030000C949B010C949B010C949B010C949B01D0
:100040000C949B010C949B010C949B010C949B01C0
:100050000C949B010C949B010C949B010C949B01B0
:100060000C949B010C949B010100015E0003440170
:100070005E016580016501660003A20011241FBEB8
:10008000CFEFD8E0DEBFCDBFE8E6F0E040E017C03C
:10009000B591A59135912591059107FD0CC09591DC
:1000A0008591EF01F92FE82F05900D92A217B30764
:1000B000D9F7FE0104C01D92A217B307E1F7EB3791
:1000C000F40731F70E94CB000C948301F894FFCF22
:1000D000CF93DF93CDB7DEB7C255D1090FB6F894F1
:1000E000DEBF0FBECDBF82E5E0E0F1E0DE0111969C
:1000F00001900D928A95E1F78CE291E00E94460111
:100100005B988BE490E00E9446012A9A8BE490E091
:100110000E9446015A9A8BE490E00E9446015B9A45
:100120008BE490E00E94460142E050E060E070E025
:10013000CE0101960E940E018BE490E00E944601E0
:100140004AE050E060E070E0CE0105960E940E01AA
:100150008BE490E00E94460147E150E060E070E0EF
:10016000CE0149960E940E018BE490E00E94460168
:1001700046E050E060E070E0CE01895B9F4F0E9456
:100180000E01CE5ADF4F0FB6F894DEBF0FBECDBFC3
:06019000DF91CF910895FC
:100196008AB18C608AB90E9472010E949501789496
:1001A6000E946800109261011092600180916501C1
:1001B6000E948E01809165010E948E0180916001EE
:1001C6009091610101969093610180936001803C5A
:1001D6009A4560F346E050E060E070E082E591E029
:1001E6000E940E01109261011092600180916401DB
:1001F6000E948E01809164010E948E0180916001AF
:10020600909161010196909361018093600180391C
:06021600914060F3FFCFF0
:10021C008F929F92AF92BF92CF92DF92EF92FF920A
:10022C000F931F93CF93DF93411551056105710512
:10023C00D1F06A017B01C82FD92F812C912C54014C
:10024C005A9A89810E948E01888122960E948E0181
:10025C005A988FEF881A980AA80AB80AC814D904B1
:10026C00EA04FB0469F7DF91CF911F910F91FF9086
:10027C00EF90DF90CF90BF90AF909F908F900895AC
:10028C00F894209162013091630130935F012093C7
:10029C005E017894F8942091620130916301789416
:1002AC0040915E0150915F01241B350B28173907D3
:0402BC0088F3089526
:1002C0008F938FB78F939F93809162019091630179
:1002D000019690936301809362019F918F918FBFEC
:0402E0008F9118954D
:1002E400E1E8F0E0808189608083EFE6F0E08081DE
:1002F400826080838FE79EE39093890080938800D7
:0203040008955A
:10030600EC010E94A0010E949F01CE010E94A10162
:06031600CE010E949D01D2
:0E031C002A988EBD0DB407FEFDCF2A9A0895D3
:0C032A0084B18C6284B980E58CBD08951C
:040336000C94000023
:04033A000E946600B7
:02033E00089520
:0203400008951E
:0203420008951C
:10034400FDFDFDFD00EF04EE041BFEFEFEFE90EF3E
:10035400044A3F7F04EE064390EF83090008AF0B85
:10036400000A00050006000700EF0CEE90EF800085
:10037400B0EF024900EF017F81E102E276E283E11E
:10038400018090EF000008EF061800128315AF13E8
:02039400001651
:0C03960008EF06183212451561134E16D0
:0103A200FF5B
:00000001FF
