:100000000C9434000C944B000C944B000C944B005B
:100010000C944B000C944B000C944B000C944B0034
:100020000C944B000C944B000C944B000C944B0024
:100030000C944B000C944B000C944B000C944B0014
:100040000C944B000C944B000C944B000C944B0004
:100050000C944B000C944B000C944B000C944B00F4
:100060000C944B000C944B0011241FBECFEFD8E032
:10007000DEBFCDBF0E944F000C944000F894FFCF2C
:10008000EC010E9451000E945000CE010E945200DB
:06009000CE010E944D00AC
:040096000C940000C6
:04009A000E943E0082
:02009E00FFCF92
:0200A0000895C1
:0200A2000895BF
:0200A4000895BD
:00000001FF
