:100000000C9487000C94F5030C94F5030C94E30313
:100010000C94F5030C94F5030C94F5030C94F50380
:100020000C94F5030C94F5030C94F5030C949803CD
:100030000C94F5030C94F5030C94F5030C94F50360
:100040000C94F5030C94F5030C94F5030C94F50350
:100050000C94F5030C94F5030C94F5030C94F50340
:100060000C94F5030C94F5030C010E010E010E0126
:100070000E010E010E010E010E010E010E010E0108
:100080000E010E010E010E010E010E010E010E01F8
:1000900004010E010E010E010E010E010E010E01F2
:1000A0000E010E010E010E010E010E010E010E01D8
:1000B0000E010E0106010E010E010E010E010E01D0
:1000C00008010E010E010A010E010E010E010E01C2
:1000D00010010E010E010E010E010E010E010E01A6
:1000E0000E010E010E010E010E010E010E010E0198
:1000F0000E010E0100010E010E010E010E010E0196
:100100000201010004AA0007F804AA04AF80112428
:100110001FBECFEFD8E0DEBFCDBFE2E0F1E041E0AF
:1001200017C0B591A59135912591059107FD0CC09A
:1001300095918591EF01F92FE82F05900D92A21767
:10014000B307D9F7FE0104C01D92A217B307E1F768
:10015000EE30F40731F70E94B8010C94C703F8940D
:02016000FFCFCF
:100162002F923F924F925F926F927F928F929F92C5
:10017200AF92BF92CF92DF92EF92FF920F931F93B3
:10018200CF93DF93CDB7DEB72E970FB6F894DEBFCD
:100192000FBECDBF98878F83862F4987412FCC868C
:1001A200EF81F8851081112309F4C8C0922F990FAD
:1001B200990F990F920F39853150390F3A87922F43
:1001C200990F920F990F9B871B82622F70E06E2C02
:1001D2003F2C202EA42EBE2C7F2C7E876D8701C043
:1001E2008E811B37E8F0412F50E0FA01E05BF10904
:1001F200ED34F10590F4EC5CFF4F0C94EF0310E842
:100202000FC011E80DC012E80BC013E809C014E8D2
:1002120007C015E805C016E803C01FE301C01FE7C9
:100222007B85780F7E83472F41500C852A8569850F
:100232000E946A0280EE810F90E0880F991F880F5A
:10024200991F880F991FFC01E050FF4FC080FC01ED
:10025200EF5FFE4FFD83EC831A8219820BC0EC81A3
:10026200FD81C190FD83EC8329813A8128303105DB
:1002720008F0C12C6D857E85672B09F445C0882462
:100282008394912CD12C8D859E85181619060CF01D
:1002920050C001E010E0862D932D0E94D2030F5F23
:1002A2001F4FED85FE85E017F107ACF742C0C6018E
:1002B200042C02C0959587950A94E2F780FD03C04D
:1002C200FB2CE72C02C0F22CEA2C2D853E8512165F
:1002D20013066CF401E010E08F2D9E2D0E94D203D4
:1002E2000F5F1F4F6D857E8560177107ACF771E058
:1002F200471A5108E0F6FFEF8F1A9F0A2D853E85B7
:100302002815390508F0BFCF69817A816F5F7F4F69
:100312007A8369836930710509F0A1CF9B819F5F60
:100322009B83EF81F885E90FF11D1081111158CFE0
:1003320005C06894442442F8512CB9CF2E960FB6CA
:10034200F894DEBF0FBECDBFDF91CF911F910F9109
:10035200FF90EF90DF90CF90BF90AF909F908F90E3
:0E0362007F906F905F904F903F902F90089586
:10037000CF93DF93CDB7DEB728970FB6F894DEBFE3
:100380000FBECDBF88E0EAE8F4E0DE0111960190EF
:100390000D928A95E1F72198299A8AB180668AB9E7
:1003A0000E94BB03579AE8E6F0E080818160808379
:1003B000EBE6F0E08081826080838AB18C608AB94C
:1003C0000E94AA030E94E90378940E94FB0200ECB9
:1003D0001AE58FEF9FEF0E94D20301501109C9F770
:1003E00066E070E082E994E00E94560300E911E0C3
:1003F00080E090E00E94D20301501109C9F70F2E4E
:10040000F3E0CF2EF02DEE24EA94FE2C0FE113E35F
:1004100022E044E162E3CE0101960E94B100FF2494
:10042000FA948091AE048130E1F75F9A17BCF8BC72
:1004300066E070E082E994E00E94560300E911E072
:1004400080E098EF0E94D20301501109C9F788EEAD
:1004500093E00E947E035F98F7BCF8BC66E070E012
:1004600082E994E00E94560300E911E080EE9FEFDC
:100470000E94D20301501109C9F788EE93E00E944F
:100480007E03F7BC18BC66E070E082E994E00E944D
:10049000560300E911E080EE97E00E94D20301507C
:1004A0001109C9F788EE93E00E947E0317BC18BCBF
:1004B0001092AE0466E070E082E994E00E94560378
:1004C00000E911E080E090E00E94D20301501109A0
:0404D000C9F7A7CFF2
:1004D4000F93CF93DF93CDB7DEB72C970FB6F89475
:1004E400DEBF0FBECDBF9CE0EEE9F4E0DE01119665
:1004F40001900D929A95E1F70230B1F1033009F4BD
:100504004EC0013089F090E092619E838D8350E06B
:10051400556158874F8370E073617A87698730E04B
:1005240036613C872B8755C0E3E0F8E1FC83EB831D
:10053400E3E8F0E0DF01A81BB109CD0192619E83DD
:100544008D83E41BF109F561F887EF838FEA90E06E
:10055400AC01461B510953615A874987821B910993
:1005640096619C878B8735C0E5E0F8E1FC83EB83DB
:10057400E3E8F0E0DF01A61BB109BD0172617E83EF
:100584006D83E21BF109F561F887EF8390E09361D5
:100594009A87898750E056615C874B871AC0E6E0EA
:1005A400F8E1FC83EB8370E072617E836D8330E05D
:1005B400356138872F832FEA30E0B901681B710950
:1005C400CB0193619A878987241B310936613C8763
:1005D4002B8766E070E0CE0101960E9456032C96AC
:1005E4000FB6F894DEBF0FBECDBFDF91CF910F9150
:0205F400089568
:1005F600CF93DF93CDB7DEB7C255D1090FB6F894C6
:10060600DEBF0FBECDBF82E5E8E3F4E0DE01119662
:1006160001900D928A95E1F78CE291E00E947E03AB
:100626005B988BE490E00E947E032A9A8BE490E02C
:100636000E947E035A9A8BE490E00E947E035B9AA6
:100646008BE490E00E947E0362E070E0CE010196AA
:100656000E9456038BE490E00E947E036AE070E0FD
:10066600CE0105960E9456038BE490E00E947E031D
:1006760067E170E0CE0149960E9456038BE490E054
:100686000E947E0366E070E0CE01895B9F4F0E9468
:100696005603CE5ADF4F0FB6F894DEBF0FBECDBF5E
:0606A600DF91CF910895E1
:1006AC00CF92DF92EF92FF920F931F93CF93DF9332
:1006BC0061157105A1F06B01C82FD92FE12CF12C1C
:1006CC005A9A89810E94DC03888122960E94DC035D
:1006DC005A988FEFE81AF80ACE14DF0489F7DF91E5
:1006EC00CF911F910F91FF90EF90DF90CF900895D5
:1006FC00F8942091AC043091AD043093AB0420936A
:10070C00AA047894F8942091AC043091AD047894B8
:10071C004091AA045091AB04241B350B28173907C0
:04072C0088F30895B1
:100730008F938FB78F939F938091AC049091AD046A
:1007400001969093AD048093AC049F918F918FBFDD
:040750008F911895D8
:10075400E1E8F0E0808189608083EFE6F0E0808169
:10076400826080838FE79EE3909389008093880062
:020774000895E6
:1007760084B5836084BD85B5846085BD84B5806A93
:0807860084BD17BC18BC0895E6
:10078E00EC010E94FA030E94F903CE010E94FB03C2
:06079E00CE010E94F703EA
:1007A400CF93C82F892F0E94DC038C2F0E94DC0377
:0407B400CF91089544
:0E07B8002A988EBD0DB407FEFDCF2A9A089533
:0C07C6008F9381E08093AE048F91189512
:0C07D20084B18C6284B980E58CBD089570
:0C07DE00EE0FFF1F0590F491E02D099430
:0407EA000C9400006B
:0407EE000E94AF00B6
:0207F200089568
:0207F400089566
:0207F600089564
:1007F8000000000000000000040E0E0404000400C5
:100808001B1B120000000000000A1F0A0A1F0A0032
:10081800080E100C021C0400191902040813130016
:100828000814140815120D000C0C08000000000034
:10083800040808080808040008040404040408005C
:10084800000A0E1F0E0A00000004041F0404000022
:1008580000000000000C0C080000001F0000000051
:1008680000000000000C0C00000102040810000049
:100878000E11131519110E00040C040404040E00C3
:100888000E11010608101F000E11010E01110E00B5
:1008980002060A121F0202001F10101E01110E008C
:1008A8000608101E11110E001F0102040808080096
:1008B8000E11110E11110E000E11110F01020C0074
:1008C80000000C0C000C0C0000000C0C000C0C08B8
:1008D800020408100804020000001F00001F0000A6
:1008E80008040201020408000E11010604000400B5
:1008F8000E11171517100E000E11111F11111100EE
:100908001E11111E11111E000E11101010110E00D3
:100918001E11111111111E001F10101E10101F00A2
:100928001F10101E101010000E11101711110F00BB
:100938001111111F111111000E04040404040E00FA
:100948000101010111110E001112141814121100E5
:100958001010101010101F00111B1511111111008B
:1009680011191513111111000E11111111110E0089
:100978001E11111E101010000E11111115120D006C
:100988001E11111E121111000E11100E01110E0070
:100998001F040404040404001111111111110E00A4
:1009A80011111111110A04001111151515150A005C
:1009B80011110A040A1111001111110A040404008A
:1009C8001E02040810101E000E08080808080E0071
:1009D80000100804020100000E02020202020E00CA
:1009E800040A110000000000000000000000001FC1
:1009F8000C0C04000000000000000E010F110F0095
:100A080010101E1111111E0000000E1110110E0001
:100A180001010F1111110F0000000E111F100E001F
:100A28000608081E0808080000000F11110F010E23
:100A380010101C1212121200040004040404040012
:100A4800020006020202120C1010121418141200EE
:100A5800040404040404060000001A15151111000A
:100A680000001C121212120000000E1111110E00CB
:100A780000001E1111111E1000000F1111110F019D
:100A88000000160908081C0000000E100E010E00D8
:100A980000081E08080A04000000121212160A00B4
:100AA80000001111110A040000001111151F0A009D
:100AB800000012120C12120000001212120E04187A
:100AC80000001E020C101E00060808180808060080
:100AD80004040404040404000C02020302020C00CF
:100AE80000000000000000000A000E010F110F00B6
:100AF8000A000E1111110E000A00121212160A0035
:100B08000A0E111F111111000A0E111111110E00F8
:100B18000A11111111110E000C12121C12121C10C4
:080B28000609090600000000A7
:100B3000FDFDFDFD00EF04EE041BFEFEFEFE90EF4A
:100B4000044A3F7F04EE064390EF83090008AF0B91
:100B5000000A00050006000700EF0CEE90EF800091
:100B6000B0EF024900EF017F81E102E276E283E12A
:100B7000018090EF000008EF061800128315AF13F4
:0A0B80000016416D70656C3A20000C
:0C0B8A0008EF06183212451561134E16D4
:0C0B960008EF00180012001500130016F4
:00000001FF
